{
  "address": "0x83994E04560Ba99870c6315f123752B2c2c9F3D5",
  "abi": [
    {
      "inputs": [
        {
          "internalType": "address",
          "name": "vrfCoordinatorV2",
          "type": "address"
        },
        {
          "internalType": "uint64",
          "name": "subscriptionId",
          "type": "uint64"
        },
        {
          "internalType": "bytes32",
          "name": "gasLane",
          "type": "bytes32"
        },
        {
          "internalType": "uint256",
          "name": "interval",
          "type": "uint256"
        },
        {
          "internalType": "uint256",
          "name": "enteranceFee",
          "type": "uint256"
        },
        {
          "internalType": "uint32",
          "name": "callbackGasLimit",
          "type": "uint32"
        }
      ],
      "stateMutability": "nonpayable",
      "type": "constructor"
    },
    {
      "inputs": [
        {
          "internalType": "address",
          "name": "have",
          "type": "address"
        },
        {
          "internalType": "address",
          "name": "want",
          "type": "address"
        }
      ],
      "name": "OnlyCoordinatorCanFulfill",
      "type": "error"
    },
    {
      "inputs": [],
      "name": "OnlySimulatedBackend",
      "type": "error"
    },
    {
      "inputs": [],
      "name": "Raffle__NotEnoughETH",
      "type": "error"
    },
    {
      "inputs": [],
      "name": "Raffle__NotOpen",
      "type": "error"
    },
    {
      "inputs": [],
      "name": "Raffle__TransferFailed",
      "type": "error"
    },
    {
      "inputs": [
        {
          "internalType": "uint256",
          "name": "currentBalance",
          "type": "uint256"
        },
        {
          "internalType": "uint256",
          "name": "numPlayers",
          "type": "uint256"
        },
        {
          "internalType": "uint256",
          "name": "raffleState",
          "type": "uint256"
        }
      ],
      "name": "Raffle__UpkeepNotNeeded",
      "type": "error"
    },
    {
      "anonymous": false,
      "inputs": [
        {
          "indexed": true,
          "internalType": "address",
          "name": "player",
          "type": "address"
        }
      ],
      "name": "RaffleEnter",
      "type": "event"
    },
    {
      "anonymous": false,
      "inputs": [
        {
          "indexed": true,
          "internalType": "uint256",
          "name": "requestId",
          "type": "uint256"
        }
      ],
      "name": "RequestedRaffleWinner",
      "type": "event"
    },
    {
      "anonymous": false,
      "inputs": [
        {
          "indexed": true,
          "internalType": "address",
          "name": "winner",
          "type": "address"
        }
      ],
      "name": "WinnerPicked",
      "type": "event"
    },
    {
      "inputs": [
        {
          "internalType": "bytes",
          "name": "",
          "type": "bytes"
        }
      ],
      "name": "checkUpkeep",
      "outputs": [
        {
          "internalType": "bool",
          "name": "upkeepNeeded",
          "type": "bool"
        },
        {
          "internalType": "bytes",
          "name": "",
          "type": "bytes"
        }
      ],
      "stateMutability": "nonpayable",
      "type": "function"
    },
    {
      "inputs": [],
      "name": "enterRaffle",
      "outputs": [],
      "stateMutability": "payable",
      "type": "function"
    },
    {
      "inputs": [],
      "name": "getEnteranceFee",
      "outputs": [
        {
          "internalType": "uint256",
          "name": "",
          "type": "uint256"
        }
      ],
      "stateMutability": "view",
      "type": "function"
    },
    {
      "inputs": [],
      "name": "getLatestTimeStamp",
      "outputs": [
        {
          "internalType": "uint256",
          "name": "",
          "type": "uint256"
        }
      ],
      "stateMutability": "view",
      "type": "function"
    },
    {
      "inputs": [],
      "name": "getNumWords",
      "outputs": [
        {
          "internalType": "uint256",
          "name": "",
          "type": "uint256"
        }
      ],
      "stateMutability": "pure",
      "type": "function"
    },
    {
      "inputs": [],
      "name": "getNumberOfPlayers",
      "outputs": [
        {
          "internalType": "uint256",
          "name": "",
          "type": "uint256"
        }
      ],
      "stateMutability": "view",
      "type": "function"
    },
    {
      "inputs": [
        {
          "internalType": "uint256",
          "name": "index",
          "type": "uint256"
        }
      ],
      "name": "getPlayer",
      "outputs": [
        {
          "internalType": "address",
          "name": "",
          "type": "address"
        }
      ],
      "stateMutability": "view",
      "type": "function"
    },
    {
      "inputs": [],
      "name": "getRaffleState",
      "outputs": [
        {
          "internalType": "enum Raffle.RaffleState",
          "name": "",
          "type": "uint8"
        }
      ],
      "stateMutability": "view",
      "type": "function"
    },
    {
      "inputs": [],
      "name": "getRecentWinner",
      "outputs": [
        {
          "internalType": "address",
          "name": "",
          "type": "address"
        }
      ],
      "stateMutability": "view",
      "type": "function"
    },
    {
      "inputs": [],
      "name": "getRequestConfirmations",
      "outputs": [
        {
          "internalType": "uint256",
          "name": "",
          "type": "uint256"
        }
      ],
      "stateMutability": "pure",
      "type": "function"
    },
    {
      "inputs": [
        {
          "internalType": "bytes",
          "name": "",
          "type": "bytes"
        }
      ],
      "name": "performUpkeep",
      "outputs": [],
      "stateMutability": "nonpayable",
      "type": "function"
    },
    {
      "inputs": [
        {
          "internalType": "uint256",
          "name": "requestId",
          "type": "uint256"
        },
        {
          "internalType": "uint256[]",
          "name": "randomWords",
          "type": "uint256[]"
        }
      ],
      "name": "rawFulfillRandomWords",
      "outputs": [],
      "stateMutability": "nonpayable",
      "type": "function"
    }
  ],
  "transactionHash": "0x07d43306d1c928c446aa095f832dc1d14ffeb02044ad3bf001542e34aff00225",
  "args": [
    "0x8103B0A8A00be2DDC778e6e7eaa21791Cd364625",
    "11392",
    "0x474e34a077df58807dbe9c96d3c009b23b3c6d0cce433e59bbf5b34f823bc56c",
    "30",
    "10000000000000000",
    "500000"
  ],
  "numDeployments": 1,
  "solcInputHash": "f4568c7951954ea13d2bcca483ffd675",
  "bytecode": "0x6101606040523480156200001257600080fd5b50604051620017b2380380620017b2833981810160405281019062000038919062000294565b858073ffffffffffffffffffffffffffffffffffffffff1660808173ffffffffffffffffffffffffffffffffffffffff1681525050508160a081815250508573ffffffffffffffffffffffffffffffffffffffff1660c08173ffffffffffffffffffffffffffffffffffffffff16815250508360e081815250508467ffffffffffffffff166101008167ffffffffffffffff16815250508063ffffffff166101208163ffffffff16815250506000600160146101000a81548160ff021916908360018111156200010d576200010c62000330565b5b0217905550426002819055508261014081815250505050505050506200035f565b600080fd5b600073ffffffffffffffffffffffffffffffffffffffff82169050919050565b6000620001608262000133565b9050919050565b620001728162000153565b81146200017e57600080fd5b50565b600081519050620001928162000167565b92915050565b600067ffffffffffffffff82169050919050565b620001b78162000198565b8114620001c357600080fd5b50565b600081519050620001d781620001ac565b92915050565b6000819050919050565b620001f281620001dd565b8114620001fe57600080fd5b50565b6000815190506200021281620001e7565b92915050565b6000819050919050565b6200022d8162000218565b81146200023957600080fd5b50565b6000815190506200024d8162000222565b92915050565b600063ffffffff82169050919050565b6200026e8162000253565b81146200027a57600080fd5b50565b6000815190506200028e8162000263565b92915050565b60008060008060008060c08789031215620002b457620002b36200012e565b5b6000620002c489828a0162000181565b9650506020620002d789828a01620001c6565b9550506040620002ea89828a0162000201565b9450506060620002fd89828a016200023c565b93505060806200031089828a016200023c565b92505060a06200032389828a016200027d565b9150509295509295509295565b7f4e487b7100000000000000000000000000000000000000000000000000000000600052602160045260246000fd5b60805160a05160c05160e0516101005161012051610140516113ea620003c860003960006107a10152600061063701526000610614015260006105f3015260006105b7015260008181610389015261071e0152600081816102c9015261031d01526113ea6000f3fe6080604052600436106100a75760003560e01c8063535bf50f11610064578063535bf50f1461018957806353a2c19a146101b45780635f1b0fd8146101df5780636e04ff0d1461020a578063e55ae4e814610248578063fd6673f514610285576100a7565b8063115cbaf5146100ac5780631fe543e3146100d75780632cfcc53914610100578063320229eb1461010a5780634585e33b14610135578063473f1ddc1461015e575b600080fd5b3480156100b857600080fd5b506100c16102b0565b6040516100ce9190610bd2565b60405180910390f35b3480156100e357600080fd5b506100fe60048036038101906100f99190610d90565b6102c7565b005b610108610387565b005b34801561011657600080fd5b5061011f6104f6565b60405161012c9190610dfb565b60405180910390f35b34801561014157600080fd5b5061015c60048036038101906101579190610e71565b610500565b005b34801561016a57600080fd5b506101736106f0565b6040516101809190610eff565b60405180910390f35b34801561019557600080fd5b5061019e61071a565b6040516101ab9190610dfb565b60405180910390f35b3480156101c057600080fd5b506101c9610742565b6040516101d69190610dfb565b60405180910390f35b3480156101eb57600080fd5b506101f4610751565b6040516102019190610dfb565b60405180910390f35b34801561021657600080fd5b50610231600480360381019061022c9190610fcf565b61075e565b60405161023f9291906110b2565b60405180910390f35b34801561025457600080fd5b5061026f600480360381019061026a91906110e2565b61080e565b60405161027c9190610eff565b60405180910390f35b34801561029157600080fd5b5061029a610855565b6040516102a79190610dfb565b60405180910390f35b6000600160149054906101000a900460ff16905090565b7f000000000000000000000000000000000000000000000000000000000000000073ffffffffffffffffffffffffffffffffffffffff163373ffffffffffffffffffffffffffffffffffffffff161461037957337f00000000000000000000000000000000000000000000000000000000000000006040517f1cf993f400000000000000000000000000000000000000000000000000000000815260040161037092919061110f565b60405180910390fd5b6103838282610861565b5050565b7f00000000000000000000000000000000000000000000000000000000000000003410156103e1576040517f9894879b00000000000000000000000000000000000000000000000000000000815260040160405180910390fd5b600060018111156103f5576103f4610b5b565b5b600160149054906101000a900460ff16600181111561041757610416610b5b565b5b1461044e576040517f1425571c00000000000000000000000000000000000000000000000000000000815260040160405180910390fd5b6000339080600181540180825580915050600190039060005260206000200160009091909190916101000a81548173ffffffffffffffffffffffffffffffffffffffff021916908373ffffffffffffffffffffffffffffffffffffffff1602179055503373ffffffffffffffffffffffffffffffffffffffff167f0805e1d667bddb8a95f0f09880cf94f403fb596ce79928d9f29b74203ba284d460405160405180910390a2565b6000600254905090565b600061051a6040518060200160405280600081525061075e565b509050806105895747600080549050600160149054906101000a900460ff16600181111561054b5761054a610b5b565b5b6040517f584327aa00000000000000000000000000000000000000000000000000000000815260040161058093929190611138565b60405180910390fd5b60018060146101000a81548160ff021916908360018111156105ae576105ad610b5b565b5b021790555060007f000000000000000000000000000000000000000000000000000000000000000073ffffffffffffffffffffffffffffffffffffffff16635d3b1d307f00000000000000000000000000000000000000000000000000000000000000007f000000000000000000000000000000000000000000000000000000000000000060037f000000000000000000000000000000000000000000000000000000000000000060016040518663ffffffff1660e01b81526004016106789594939291906111e7565b6020604051808303816000875af1158015610697573d6000803e3d6000fd5b505050506040513d601f19601f820116820180604052508101906106bb919061124f565b9050807fcd6e45c8998311cab7e9d4385596cac867e20a0587194b954fa3a731c93ce78b60405160405180910390a250505050565b6000600160009054906101000a900473ffffffffffffffffffffffffffffffffffffffff16905090565b60007f0000000000000000000000000000000000000000000000000000000000000000905090565b6000600163ffffffff16905090565b6000600361ffff16905090565b600060606000600160149054906101000a900460ff16600181111561078657610785610b5b565b5b6000600181111561079a57610799610b5b565b5b14905060007f0000000000000000000000000000000000000000000000000000000000000000600254426107ce91906112ab565b1190506000806000805490501190506000804711905060008480156107f05750835b80156107f95750825b80156108025750815b90505050505050915091565b6000808281548110610823576108226112df565b5b9060005260206000200160009054906101000a900473ffffffffffffffffffffffffffffffffffffffff169050919050565b60008080549050905090565b600080805490508260008151811061087c5761087b6112df565b5b602002602001015161088e919061133d565b905060008082815481106108a5576108a46112df565b5b9060005260206000200160009054906101000a900473ffffffffffffffffffffffffffffffffffffffff16905080600160006101000a81548173ffffffffffffffffffffffffffffffffffffffff021916908373ffffffffffffffffffffffffffffffffffffffff1602179055506000600160146101000a81548160ff0219169083600181111561093957610938610b5b565b5b0217905550600067ffffffffffffffff81111561095957610958610c4d565b5b6040519080825280602002602001820160405280156109875781602001602082028036833780820191505090505b506000908051906020019061099d929190610ab4565b504260028190555060008173ffffffffffffffffffffffffffffffffffffffff16476040516109cb9061139f565b60006040518083038185875af1925050503d8060008114610a08576040519150601f19603f3d011682016040523d82523d6000602084013e610a0d565b606091505b5050905080610a48576040517fa1d04b3900000000000000000000000000000000000000000000000000000000815260040160405180910390fd5b600160009054906101000a900473ffffffffffffffffffffffffffffffffffffffff1673ffffffffffffffffffffffffffffffffffffffff167f5b690ec4a06fe979403046eaeea5b3ce38524683c3001f662c8b5a829632f7df60405160405180910390a25050505050565b828054828255906000526020600020908101928215610b2d579160200282015b82811115610b2c5782518260006101000a81548173ffffffffffffffffffffffffffffffffffffffff021916908373ffffffffffffffffffffffffffffffffffffffff16021790555091602001919060010190610ad4565b5b509050610b3a9190610b3e565b5090565b5b80821115610b57576000816000905550600101610b3f565b5090565b7f4e487b7100000000000000000000000000000000000000000000000000000000600052602160045260246000fd5b60028110610b9b57610b9a610b5b565b5b50565b6000819050610bac82610b8a565b919050565b6000610bbc82610b9e565b9050919050565b610bcc81610bb1565b82525050565b6000602082019050610be76000830184610bc3565b92915050565b6000604051905090565b600080fd5b600080fd5b6000819050919050565b610c1481610c01565b8114610c1f57600080fd5b50565b600081359050610c3181610c0b565b92915050565b600080fd5b6000601f19601f8301169050919050565b7f4e487b7100000000000000000000000000000000000000000000000000000000600052604160045260246000fd5b610c8582610c3c565b810181811067ffffffffffffffff82111715610ca457610ca3610c4d565b5b80604052505050565b6000610cb7610bed565b9050610cc38282610c7c565b919050565b600067ffffffffffffffff821115610ce357610ce2610c4d565b5b602082029050602081019050919050565b600080fd5b6000610d0c610d0784610cc8565b610cad565b90508083825260208201905060208402830185811115610d2f57610d2e610cf4565b5b835b81811015610d585780610d448882610c22565b845260208401935050602081019050610d31565b5050509392505050565b600082601f830112610d7757610d76610c37565b5b8135610d87848260208601610cf9565b91505092915050565b60008060408385031215610da757610da6610bf7565b5b6000610db585828601610c22565b925050602083013567ffffffffffffffff811115610dd657610dd5610bfc565b5b610de285828601610d62565b9150509250929050565b610df581610c01565b82525050565b6000602082019050610e106000830184610dec565b92915050565b600080fd5b60008083601f840112610e3157610e30610c37565b5b8235905067ffffffffffffffff811115610e4e57610e4d610e16565b5b602083019150836001820283011115610e6a57610e69610cf4565b5b9250929050565b60008060208385031215610e8857610e87610bf7565b5b600083013567ffffffffffffffff811115610ea657610ea5610bfc565b5b610eb285828601610e1b565b92509250509250929050565b600073ffffffffffffffffffffffffffffffffffffffff82169050919050565b6000610ee982610ebe565b9050919050565b610ef981610ede565b82525050565b6000602082019050610f146000830184610ef0565b92915050565b600080fd5b600067ffffffffffffffff821115610f3a57610f39610c4d565b5b610f4382610c3c565b9050602081019050919050565b82818337600083830152505050565b6000610f72610f6d84610f1f565b610cad565b905082815260208101848484011115610f8e57610f8d610f1a565b5b610f99848285610f50565b509392505050565b600082601f830112610fb657610fb5610c37565b5b8135610fc6848260208601610f5f565b91505092915050565b600060208284031215610fe557610fe4610bf7565b5b600082013567ffffffffffffffff81111561100357611002610bfc565b5b61100f84828501610fa1565b91505092915050565b60008115159050919050565b61102d81611018565b82525050565b600081519050919050565b600082825260208201905092915050565b60005b8381101561106d578082015181840152602081019050611052565b60008484015250505050565b600061108482611033565b61108e818561103e565b935061109e81856020860161104f565b6110a781610c3c565b840191505092915050565b60006040820190506110c76000830185611024565b81810360208301526110d98184611079565b90509392505050565b6000602082840312156110f8576110f7610bf7565b5b600061110684828501610c22565b91505092915050565b60006040820190506111246000830185610ef0565b6111316020830184610ef0565b9392505050565b600060608201905061114d6000830186610dec565b61115a6020830185610dec565b6111676040830184610dec565b949350505050565b6000819050919050565b6111828161116f565b82525050565b600067ffffffffffffffff82169050919050565b6111a581611188565b82525050565b600061ffff82169050919050565b6111c2816111ab565b82525050565b600063ffffffff82169050919050565b6111e1816111c8565b82525050565b600060a0820190506111fc6000830188611179565b611209602083018761119c565b61121660408301866111b9565b61122360608301856111d8565b61123060808301846111d8565b9695505050505050565b60008151905061124981610c0b565b92915050565b60006020828403121561126557611264610bf7565b5b60006112738482850161123a565b91505092915050565b7f4e487b7100000000000000000000000000000000000000000000000000000000600052601160045260246000fd5b60006112b682610c01565b91506112c183610c01565b92508282039050818111156112d9576112d861127c565b5b92915050565b7f4e487b7100000000000000000000000000000000000000000000000000000000600052603260045260246000fd5b7f4e487b7100000000000000000000000000000000000000000000000000000000600052601260045260246000fd5b600061134882610c01565b915061135383610c01565b9250826113635761136261130e565b5b828206905092915050565b600081905092915050565b50565b600061138960008361136e565b915061139482611379565b600082019050919050565b60006113aa8261137c565b915081905091905056fea264697066735822122045b0667e641523a04bead24c8796d03365c832fdb5562143b213252541adfdd164736f6c63430008180033",
  "devdoc": {
    "author": "Sachin Varma",
    "details": "This implements chainlink VRF v2 and chainlink keepers",
    "kind": "dev",
    "methods": {
      "checkUpkeep(bytes)": {
        "details": "this is the function that the Chainlink keeper nodes call they look for the `upkeepNeeded` to return true. the following should be true in order to return true 1. Our time interval should have passed 2. the lottery should have at least 1 player, and have some ETH 3. Our subscription is funded with LINK 4. lottery should be in an \"open\" state."
      }
    },
    "title": "A sample Raffle contract",
    "version": 1
  },
  "userdoc": {
    "kind": "user",
    "methods": {},
    "notice": "This contract is for creating an untamperable decentralized smart contract",
    "version": 1
  },
  "storageLayout": {
    "storage": [
      {
        "astId": 253,
        "contract": "contracts/Raffle.sol:Raffle",
        "label": "s_players",
        "offset": 0,
        "slot": "0",
        "type": "t_array(t_address_payable)dyn_storage"
      },
      {
        "astId": 270,
        "contract": "contracts/Raffle.sol:Raffle",
        "label": "s_recentWinner",
        "offset": 0,
        "slot": "1",
        "type": "t_address"
      },
      {
        "astId": 273,
        "contract": "contracts/Raffle.sol:Raffle",
        "label": "s_raffleState",
        "offset": 20,
        "slot": "1",
        "type": "t_enum(RaffleState)248"
      },
      {
        "astId": 275,
        "contract": "contracts/Raffle.sol:Raffle",
        "label": "s_lastTimeStamp",
        "offset": 0,
        "slot": "2",
        "type": "t_uint256"
      }
    ],
    "types": {
      "t_address": {
        "encoding": "inplace",
        "label": "address",
        "numberOfBytes": "20"
      },
      "t_address_payable": {
        "encoding": "inplace",
        "label": "address payable",
        "numberOfBytes": "20"
      },
      "t_array(t_address_payable)dyn_storage": {
        "base": "t_address_payable",
        "encoding": "dynamic_array",
        "label": "address payable[]",
        "numberOfBytes": "32"
      },
      "t_enum(RaffleState)248": {
        "encoding": "inplace",
        "label": "enum Raffle.RaffleState",
        "numberOfBytes": "1"
      },
      "t_uint256": {
        "encoding": "inplace",
        "label": "uint256",
        "numberOfBytes": "32"
      }
    }
  }
}